:020000040000FA
:020000001228C4
:100008007E1480312000901E0A280B281028813188
:1000180025218031200090127E1009001328FA0152
:10002800FB01FC012000CB01CC01CD01CE01CF01A9
:10003800A03084000030850028308131E4218031EF
:100048007E102000FD282000C800203086000030E7
:1000580087002830F50000301E00F50B30280330EB
:10006800F5007508C9007208D1007108D000510860
:10007800F6005008F500F50EF60EF030F605750896
:100088000F39F604F030F5057508D0007608D10070
:1000980050087304D0005108D1007408033EF500DD
:1000A8007508D200FC016F284808F5007C08490251
:1000B800FF3E890A6028F536890B5F2875080139E3
:1000C800F6007C08203E8600870176088100013012
:1000D800F5007508FC0749087C02031C742875287C
:1000E80058284908F5007508FC0096282000510892
:1000F800F6005008F5007C0874024907FF3E890A9B
:100108008728F636F50C890B852875080139F7001C
:100118007C08203E86008701770881000130F500C1
:100128007508FC0749087407F500F601F60D76080E
:10013800803A803C031DA22875087C02031CA52870
:10014800A6287A282000CF01CF0AFA01F628FB0159
:10015800D9287B08203E86008701010C2200031C59
:100168008E1203188E1601302000D2020130F500DD
:100178007508FA07CE014E080319C328C428BF28FA
:1001880074084907F500F601F60D7A087506760435
:10019800031DCF28D028D52822008E122000CF0199
:1001A800FC280130F5007508FB0774084907F500BD
:1001B800F601F60D7608803AF70080307702031DC5
:1001C800E7287B0875020318EA28EB28AD282200E7
:1001D8000E1AEF28F028F62820004D08031DF528F0
:1001E800F628AB2820005208031DFB28FC28EB2822
:1001F80008008131B22180312000CF018131C52131
:1002080080318B178131D721803122008E11003047
:10021800F100F200F3010A302000CA004A08F40095
:10022800053080312720803122008E150B302000C8
:10023800CA006230890B1E29CA0B1E290000092931
:10024800122820004F03031D2A292B2943290310B4
:1002580022000E1E031403183229352922000E1617
:10026800372922000E120E1A3A293B294629200066
:10027800CE01CE0A0130F0007008CD074629CD0125
:1002880022000E16080022008E110030F100F20044
:100298000230F8007808F3000930F9007908F40012
:1002A800043080312720813122008E150B30F80070
:1002B8006230890B5D29F80B5D29003208002200A5
:1002C8008E110030F100F2000630F8007808F300D3
:1002D8000930F9007908F400043080312720813191
:1002E80022008E150B30F8006230890B7929F80B43
:1002F80079290032080022008E110530F100003003
:10030800F200F3010930F8007808F4000430803175
:100318002720813122008E150B30F8006230890BBE
:100328009329F80B93290032080022008E1100301F
:10033800F100F200F3010930F8007808F400053004
:1003480080312720813122008E150B30F800623071
:10035800890BAC29F80BAC290032080022008E1555
:1003680023008E1121008E1122000E1623000E127A
:1003780021000E1222008E1223008E1221008E12EE
:100388000800200018081F39403898001808F0396C
:100398000338980018169012210090166430200037
:1003A80096009717080081314721813181317F21DB
:1003B8008131813199218131813163218131080075
:0C03C800640080010131890BE52900343C
:020000040001F9
:06000E008CFFF2FDFFDF94
:00000001FF
