:020000040000FA
:020000001228C4
:100008007E1480312000901E0A280B281028813188
:1000180027218031200090127E1009001328F80152
:10002800F901FA01FB01FC012000CE01CF01D0014A
:10003800A03084000030850050308131D4218031D7
:100048007E102000E5282000C800203086000030FF
:1000580087002830F40000301E00F40B30280330ED
:10006800F4007408C9007208CC007108CB0073084A
:10007800033EF4007408CD00FC0159284808F40038
:100088007C084902FF3E890A4A28F436890B492828
:1000980074080139F5007C08203E86008701750840
:1000A80081000130F4007408FC0749087C02031C35
:1000B8005E285F2842284908F4007408FC0080285C
:1000C80020004C08F5004B08F4007C08730249072F
:1000D800FF3E890A7128F536F40C890B6F287408DD
:1000E8000139F6007C08203E8600870176088100E9
:1000F8000130F4007408FC0749087307F400F5019F
:10010800F50D7508803A803C031D8C2874087C0224
:10011800031C8F2890286428F901F90AFA01DE28BF
:10012800FB01C1287B08203E86008701010C2200C4
:10013800031C8E1203188E1601302000CD020130E8
:10014800F4007408FA07F80178080319AC28AD28F8
:10015800A82873084907F400F501F50D7A08740614
:100168007504031DB828B928BD2822008E12F9018C
:10017800E4280130F4007408FB0773084907F40009
:10018800F501F50D7508803AF60080307602031DFA
:10019800CF287B0874020318D228D3289628220077
:1001A8000E1ED728D828DE2820004F08031DDD287A
:1001B800DE28942820004D08031DE328E428D328CE
:1001C800080022008E1523008E1121008E112200B6
:1001D8000E1223000E1221000E1222008E1223008E
:1001E8008E1221008E12F9018131C22180318B17C4
:1001F8008131AD21803181319421803181317B2160
:100208008031813149218031813162218031220060
:100218008E11FF30F1000230F2000A302000CA00CF
:100228004A08F300053080312720803122008E15DE
:100238000B302000CA006230890B2029CA0B202904
:1002480000000B2912287903031D2B292C29442986
:10025800031022000E1E0314031833293629220026
:100268000E16382922000E120E1A3B293C2948295D
:10027800F801F80A0130F00070082000CF0748297B
:100288002000CF0122000E16080022008E11023035
:10029800F1000030F2000930F7007708F30004306D
:1002A80080312720813122008E150B30F700623013
:1002B800890B5C29F70B5C290032080022008E119B
:1002C8000630F1000030F2000930F7007708F3003B
:1002D800043080312720813122008E150B30F70041
:1002E8006230890B7529F70B752900320800220046
:1002F8008E115230F1000030F2000930F700770813
:10030800F300043080312720813122008E150B3014
:10031800F7006230890B8E29F70B8E29003208000E
:1003280022008E112830F1000030F2000930F70069
:100338007708F300043080312720813122008E15A0
:100348000B30F7006230890BA729F70BA729003279
:10035800080022008E110030F100F200F301003095
:1003680080312720813122008E150B30F700623052
:10037800890BBC29F70BBC2900320800200018089B
:100388001F39403898001808F039033898001816B3
:1003980090122100901664302000960097170800EC
:0C03A800640080010131890BD52900346C
:020000040001F9
:06000E008CFFF2FDFFDF94
:00000001FF
